:020000040800F2
:10000000D0BC002045010008C1410008253D000882
:1000100019410008270D00080B78000800000000B7
:10002000000000000000000000000000BD4D0008BE
:10003000DD1800080000000059480008156300089A
:100040005F0100085F0100085F0100085F01000810
:100050005F0100085F0100085F0100085F01000800
:100060005F0100085F0100085F0100085F010008F0
:100070005F0100085F0100085F0100085F010008E0
:100080005F0100085F0100085F0100085F010008D0
:10009000517400085F0100085F0100085F0100085B
:1000A0005F0100085F0100085F0100085F010008B0
:1000B0005F010008796300085F0100085F01000824
:1000C0005F0100085F0100085F0100085F01000890
:1000D0005F010008A56900085F010008AD6900081C
:1000E0005F0100085F0100084F6D00085F01000814
:1000F0005F0100085F0100085F0100085F01000860
:100100005F0100085F0100085F0100085F0100084F
:100110005F0100085F0100085F0100085F0100083F
:100120005F0100085F0100085F0100085F0100082F
:10013000DFF80CD000F01AFC00480047C18F00081F
:10014000D0BC00200648804706480047FEE7FEE78F
:10015000FEE7FEE7FEE7FEE7FEE7FEE7FEE7FEE777
:10016000196300083101000810B5431A934209D2FF
:100170008318881803E010F8011D03F8011D521EB2
:10018000F9D210BD40EA01039B0703D009E008C97A
:10019000121F08C0042AFAD203E011F8013B00F84C
:1001A000013B521EF9D210BDD2B201E000F8012B82
:1001B000491EFBD270470022F6E710B513460A46E7
:1001C00004461946FFF7F0FF204610BD421E12F804
:1001D000013F002BFBD111F8013B02F8013B002B42
:1001E000F9D17047421C10F8011B0029FBD1801A7D
:1001F000704710B5044600E0401C0378002BFBD18B
:1002000000E0401C521E04D311F8013B0370002B88
:10021000F7D100210170204610BD034611F8012BD3
:1002200000F8012B002AF9D118467047F0B480EA93
:100230000102D40F4200B2EB410F02D2024608463F
:1002400011464A0042D0C30DDDB2C1F3C752AD1A08
:10025000202D35DAC1F3160141F4000204B15242F7
:10026000C5F1200602FA06F12A411044B3EBD05F33
:1002700023D0C4B1012DA0EBC35009DCF0BC4FF07A
:10028000004202EAC352DBB200F5000000F08DB973
:10029000400000F1807000EBC350A0F1807040EA94
:1002A000D170490009E0490841EAC071A0EBC35090
:1002B00000F50000400800EBC350F0BC00F06CB942
:1002C0006142012202EB4101001BF6E7F0BC7047DE
:1002D00081F00041AAE780F00040A7E780EA010230
:1002E00010B502F00043400022D04A001FD0010E9A
:1002F00001EB1261C0F35600C2F3560240F4000055
:1003000042F40002A0FB022000047F39140400D054
:10031000401C50EA124001D44000491EC2B20C06F3
:1003200004EBD010401C4008802A02D003E00020DB
:1003300010BD20F00100002900DA0020184310BD94
:1003400030B480EA010202F0004530F0004221F0B2
:10035000004013D090B1C30DD40DC2F31601C0F309
:100360001600E41A41F4000140F400027D34914289
:1003700001D3641C00E04900002C02DA30BC0020EC
:1003800070474FF400000023914201D3891A0343C0
:1003900040084FEA4101F7D151B1914202D14FF0EB
:1003A000004105E002D24FF0010101E06FF00101D0
:1003B00003EBC450284430BC00F0EEB82DE9FE4FEA
:1003C00081EA030404F0004421F0004100944FF05E
:1003D000000B23F0004350EA01045ED052EA03040C
:1003E0005BD0C3F30A54C1F30A552C44A4F2F3348E
:1003F0000194A0FB0254C1F3130141F48011C3F333
:10040000130343F4801301FB024400FB034E840AF0
:10041000970A44EA815447EA8357A4FB0768029588
:100420008D0A05FB07854FEA932C04FB0C54270526
:10043000029D4FEA065847EA1637B5EB08056EEB02
:10044000070C870E920E47EA811742EA8312A7FB38
:100450000201B6EB0B0164EB00042B0D43EA0C33F5
:100460005E1844EB1C50DA465146E7FB0201C5F327
:1004700013044FEA0B3343EA14534FEA0432019C4E
:1004800043EA0603A4F10C040294009CCDE900B4F5
:1004900000F0C8F803B0BDE8F08F00200146F9E78E
:1004A00096230022114600F080B820F00040C10DD4
:1004B000C0F3160040F400007F2901DA00207047E5
:1004C000962903DCC1F19601C840704796398840EF
:1004D0007047C1F30A5210B5C1F3130140F2FF3364
:1004E00041F480119A4201DA002010BD40F23343FA
:1004F0009A42A2F2334203DC524200F03DF810BDB2
:10050000904010BD00F0004230F000400AD0C10D14
:1005100001F56071C0F3160042EA0151C2084007BC
:100520001143704700200146704701F0004330B48A
:1005300021F0004150EA010206D00A0DA2F56072D6
:10054000C1F31301002A02DC30BC00207047440FC5
:1005500044EAC104C100E01830BC00EBC25000F016
:100560001BB80000002801DBC0F10040002901DBBE
:10057000C1F1004188427047202A04DB203A21FA69
:1005800002F00021704721FA02F3D040C2F12002AC
:1005900091400843194670470029A8BF7047401C86
:1005A000490008BF20F00100704710B4B0FA80FC89
:1005B00000FA0CF050EA010404BF10BC704749B1C6
:1005C000CCF1200421FA04F411FA0CF118BF012136
:1005D00021430843A3EB0C01CB1D4FEA00614FEA16
:1005E000102042BF002010BC704700EBC3501044E5
:1005F0000029A4BF10BC7047401C490008BF20F070
:10060000010010BC704710B5141E73F1000408DA25
:10061000401C41F1000192185B411A4301D120F0C6
:10062000010010BD2DE9F04D92469B4611B1B1FA83
:1006300081F202E0B0FA80F22032904600F0A8F990
:1006400004460F4640EA0A0041EA0B0153465A4667
:10065000084313D0114653EA010019D0C8F14002F3
:100660005046FFF789FF05460E465046594642461A
:1006700000F08EF9084305D0012004E020463946F9
:10068000BDE8F08D0020054346EAE0762C43374371
:100690000A986305E40AA0EB08000022FD0A44EA78
:1006A00047540A3002D500200146E9E70105101938
:1006B0006941DDE9084500196941BDE8F04DA2E74F
:1006C0002DE9FE4F804681EA0300C00F0C460090E2
:1006D00021F0004123F00045B8EB0200A94105D20A
:1006E0004046214690461C460B46024623F00040F9
:1006F000104347D0270DC7F30A00C3F30A510290F5
:10070000401A019040286BDAC3F3130040F4801BB9
:100710000098924620B10023D2EB030A63EB0B0B47
:1007200001985946C0F14002504600F031F90646A2
:100730000D4650465946019A00F039F910EB080071
:100740006141002487EA115284EAE7731A4340D0DA
:10075000009A62B3019A012A4FEA075215DC001B86
:1007600061EB02014FF0004202EA0752CDE900427C
:10077000001C41F5801132462B46FFF753FF03B0B2
:10078000BDE8F08F40462146F9E7001B61EB02010E
:10079000001C41F5801300185B412018A2F50017DA
:1007A00047EB030140EAD570B6196D4111E06D08C1
:1007B0004FEA360645EAC0754FEA0752001B61EB67
:1007C0000201001C41F5801149084FEA3000001970
:1007D000514132462B4603B0BDE8F04FFFF713BF3F
:1007E0000098012240000023D0EB020263EBE0738B
:1007F000009821464FEAE074B8EB000061EB040179
:10080000E9E783F000435BE781F0004158E72DE919
:10081000F04D81EA030404F0004B21F0004514463A
:100820004FF0000A23F0004150EA050220D054EABC
:1008300001021DD0C5F30A570246C5F31303C1F3E5
:100840001300C1F30A5640F4801543F48013A7EB5C
:100850000608101BD64608F2FD3873EB050002D3DC
:1008600008F1010801E092185B41B8F1000F03DACA
:1008700000200146BDE8F08D00204FF480110646AF
:1008800084460EE0171B73EB050705D3121B63EBC1
:10089000050306434CEA010C49084FEA3000921860
:1008A0005B4150EA0107EDD152EA030012D082EA1F
:1008B000040083EA0501084305D0101BAB4106D2B2
:1008C0000122002306E000224FF0004302E06FF017
:1008D000010253101AEB06004CEB085110EB0A0012
:1008E00041EB0B01BDE8F04DFFF78DBE70B521F077
:1008F000004303430CD0C1F30A550024D5EB040593
:1009000064EB0403D617AD1AB34102DB00200146A5
:1009100070BD201841EB025170BD0EB5C10F80EAC9
:10092000E0700844CA07002140F233438DE80E000E
:100930000A460B46FFF776FE03B000BD30B5041E35
:1009400071F1000404DB4FF00044404264EB01010C
:10095000141E73F1000405DB1C464FF000435242A5
:1009600063EB04038B4208BF824230BD064C074D47
:1009700006E0E06840F0010394E80700984710346F
:10098000AC42F6D3FFF7D8FBA4A90008C4A900081D
:10099000202A04DB203A00FA02F10020704791403F
:1009A000C2F1200320FA03F3194390407047202A34
:1009B00006DBCB17203A41FA02F043EAE07306E087
:1009C00041FA02F3D040C2F1200291400843194697
:1009D000704770B58C1810F8015B15F0070301D152
:1009E00010F8013B2A1106D110F8012B03E010F892
:1009F000016B01F8016B5B1EF9D12B0705D40023B5
:100A0000521E0DD401F8013BFAE710F8013BCB1A56
:100A1000921C03E013F8015B01F8015B521EF9D54B
:100A2000A142D8D3002070BD00B591B03A4800F083
:100A300087FC3A4806903A48079000200890032027
:100A4000099000200A9080200B9040000C908000BC
:100A50000D9020200E9000020F900020109006A90B
:100A60002D4800F013FD01212B4800F05DFC002013
:100A7000019001208DF808008DF809004FF46020E6
:100A800003900020049003208DF8140001A923484E
:100A90004C3800F071F84FF4804004F04DF8052315
:100AA000012200211D484C3800F08EF80523022257
:100AB00001211A484C3800F087F80523032202214F
:100AC00016484C3800F080F8012114484C3800F0EA
:100AD00034F8012111484C3800F024F80F484C3804
:100AE00000F0CEF800BF0D484C3800F03BF800286D
:100AF000F9D10A484C3800F0D3F800BF07484C3809
:100B000000F026F80028F9D1012104484C3800F003
:100B1000BCF811B000BD0000080002404C240140A8
:100B20008400002021B1826842F00102826003E06B
:100B3000826822F001028260704721B1826842F42B
:100B40008072826003E0826822F480728260704763
:100B5000014600208A6802F004020AB1012000E088
:100B600000207047014600208A6802F008020AB19E
:100B7000012000E00020704730B50246002000232D
:100B800050680F4C20400D790C6844EA052420433E
:100B9000506090680B4C2040D1E902542C434D79B1
:100BA00044EA450420439060D06A20F470000C7C35
:100BB000641EE4B2234340EA0350D06230BD00001B
:100BC000FFFEF0FFFDF7F1FFF0B504460D460020F3
:100BD0000021092D11DDE068A5F10A0606EB4607A4
:100BE000072606FA07F18843A5F10A0606EB460632
:100BF00003FA06F10843E0600CE0206905EB4507C5
:100C0000072606FA07F1884305EB450603FA06F1C5
:100C100008432061072A0FDA606B561E06EB860731
:100C20001F2606FA07F18843561E06EB860605FACC
:100C300006F10843606322E00D2A0FDA206BD61F0D
:100C400006EB86071F2606FA07F18843D61F06EB38
:100C5000860605FA06F10843206310E0E06AA2F177
:100C60000D0606EB86071F2606FA07F18843A2F158
:100C70000D0606EB860605FA06F10843E062F0BDB4
:100C8000816841F008018160704721B1826842F4B7
:100C9000A002826003E0826822F4A00282607047B2
:100CA000816841F00401816070470146302905DB0D
:100CB000392903DCA1F13000C0B27047412905DBBE
:100CC0005A2903DCA1F13700C0B2F6E7202901D18F
:100CD0002420F2E7242901D12520EEE7252901D19E
:100CE0002620EAE72A2901D12720E6E72B2901D18E
:100CF0002820E2E72D2901D12920DEE72E2901D184
:100D00002A20DAE72F2901D12B20D6E72C20D4E79F
:100D10000246084604E0401E135C83F0FF031354B0
:100D20000028F8D1704700BFFEE7014600200022EE
:100D300006E04306180E01F0010318434910521C47
:100D4000082AF6DB704700002DE9F041002000245E
:100D500000223CE0002134E001264B1C26E0C2EBDF
:100D6000021707EB4707DFF83CC467447F5C07F0D6
:100D700011070FB9012700E00027C2EB021C0CEBA2
:100D80004C0CDFF82084C4441CF803C00CF0110C98
:100D9000BCF1000F02D14FF0010C01E04FF0000C4C
:100DA000674501D1761C00E004E05B1CFE4F3F6804
:100DB000BB42D4DB00BF052E01DBB71E3844591EF1
:100DC000491CF94E3668361F8E42C5DC521CF64E61
:100DD0003668B242BEDB00223CE0002134E001264E
:100DE0004B1C26E0C1EB011707EB4707DFF8B4C344
:100DF0006744BF5C07F011070FB9012700E0002727
:100E0000C3EB031C0CEB4C0CDFF89883C4441CF8B8
:100E100002C00CF0110CBCF1000F02D14FF0010C1C
:100E200001E04FF0000C674501D1761C00E004E0C2
:100E30005B1CDD4F3F68BB42D4DB00BF052E01DBEE
:100E4000B71E3844591E491CD74E3668361F8E428D
:100E5000C5DC521CD44E3668B242BEDB002266E0CE
:100E600000215EE0C2EB021606EB4606CD4F3E4483
:100E7000765C06F011060EB9012700E00027561C2B
:100E8000C6EB061606EB4606DFF818C36644765C2A
:100E900006F011060EB9012600E00026B7423FD148
:100EA000C2EB021606EB4606BE4F3E44765C06F0E9
:100EB00011060EB9012700E00027C2EB021606EB6F
:100EC0004606DFF8E0C2B4444E1C1CF8066006F08B
:100ED00011060EB9012600E00026B74220D1C2EB70
:100EE000021606EB4606AF4F3E44765C06F011064E
:100EF0000EB9012700E00027561CC6EB061606EBCC
:100F00004606DFF8A0C2B4444E1C1CF8066006F08A
:100F100011060EB9012600E00026B74200D1C01C20
:100F2000491CA14E3668761E8E429BDC521C9E4E9A
:100F30003668761E964293DC0022D2E00021C9E09A
:100F400059B1C2EB021606EB4606964F37444E1EC9
:100F5000BE5D06F01106002E76D1C2EB021606EB3E
:100F60004606904F3E44765C06F01106002E6BD08C
:100F7000C2EB021606EB460637444E1CBE5D06F079
:100F80001106002E60D1C2EB021606EB4606854F15
:100F900037448E1CBE5D06F01106002E54D0C2EB05
:100FA000021606EB46067F4F3744CE1CBE5D06F0A8
:100FB0001106002E48D0C2EB021606EB4606794F0A
:100FC00037440E1DBE5D06F01106EEB3C2EB0216ED
:100FD00006EB4606734F37444E1DBE5D06F0110604
:100FE00096BBC2EB021606EB46066E4F37448E1DCB
:100FF000BE5D06F011063EB36B4E3668F61F8E429C
:101000000AD0C2EB021606EB4606664F3744CE1DE9
:10101000BE5D06F01106BEB902290ADBC2EB02165C
:1010200006EB46065F4F37448E1EBE5D06F0110686
:10103000DEB903290CDBC2EB021606EB4606594F5C
:101040003744CE1EBE5D00E043E006F0110666B9EF
:1010500004293DDBC2EB021606EB4606514F37442E
:101060000E1FBE5D06F0110696B34F4E3668083E61
:101070008E420BDDC2EB021606EB4606494F3744A3
:1010800001F10806BE5D06F0110616BB464E366835
:10109000093E8E420BDDC2EB021606EB4606414FBF
:1010A000374401F10906BE5D06F011068EB93E4EC9
:1010B00036680A3E8E420BDDC2EB021606EB460690
:1010C000384F374401F10A06BE5D06F0110606B935
:1010D0002830491C344E3668B61F8E423FF730AF79
:1010E000521C314E3668B242FFF628AF0022D0E0E3
:1010F0000021C7E059B14E1EC6EB061606EB4606A8
:10110000284F3E44B65C06F01106002E4ED1C1EBCE
:10111000011606EB4606234F3E44B65C06F0110668
:10112000002E43D04E1CC6EB061606EB46063E4488
:10113000B65C06F01106002E38D18E1CC6EB0616E2
:1011400006EB46063E44B65C06F0110676B3CE1CAE
:10115000C6EB061606EB46063E44B65C06F01106E4
:1011600026B30E1DC6EB061606EB46063E44B65CDD
:1011700006F01106D6B14E1DC6EB061606EB460666
:101180003E44B65C06F0110686B98E1DC6EB061607
:1011900006EB46063E44B65C06F0110636B1024E3A
:1011A000366804E050A90020A00100204AE0F61FA4
:1011B0008E4209D0CE1DC6EB061606EB46063E440F
:1011C000B65C06F01106EEBB02290ADB8E1EC6EBEA
:1011D000061606EB4606524F3E44B65C06F0110674
:1011E000CEB903290ADBCE1EC6EB061606EB460671
:1011F0004B4F3E44B65C06F0110666B904293FDB4E
:101200000E1FC6EB061606EB4606454F3E44B65C7F
:1012100006F01106A6B3434E3668083E8E420BDD3B
:1012200001F10806C6EB061606EB46063C4F3E44A7
:10123000B65C06F011062EB93A4E3668093E8E426B
:101240000DDD00E01DE001F10906C6EB061606EB18
:101250004606334F3E44B65C06F011068EB9314E59
:1012600036680A3E8E420BDD01F10A06C6EB061611
:1012700006EB46062A4F3E44B65C06F0110606B958
:101280002830491C274E3668B61F8E423FF732AFD2
:10129000521C244E3668B242FFF62AAF002212E0FA
:1012A00000210BE0C2EB021606EB46061C4F3E4443
:1012B000765C06F0110606B9641C491C194E3668A6
:1012C000B142EFDB521C174E3668B242E8DB6426AF
:1012D0006643144F3F687F4396FBF7F6C6F132062C
:1012E000002E09DD642666430E4F3F687F4396FB60
:1012F000F7F6C6F1320509E064266643094F3F68F8
:101300007F4396FBF7F6C6F132067542052695FB3C
:10131000F6F606EB860600EB4600BDE8F08100001D
:1013200050A90020A001002021B1026842F0010272
:10133000026004E002684FF6FE731A4002607047D4
:1013400001684FF6FE7211400160002101604160AA
:101350008160C1604B49884208D14A4908394968CF
:1013600041F00F01474A083A51608AE0454914317B
:10137000884208D143490839496841F0F001414A9F
:10138000083A51607DE03F492831884208D13D4903
:101390000839496841F470613A4A083A516070E08E
:1013A00038493C31884208D136490839496841F406
:1013B0007041344A083A516063E032495031884202
:1013C00008D130490839496841F470212D4A083A5A
:1013D000516056E02B496431884208D129490839C7
:1013E000496841F47001274A083A516049E02549AB
:1013F0007831884208D123490839496841F0706141
:10140000204A083A51603CE01F49884206D1011F3A
:10141000096841F00F01021F116032E01A491431CE
:10142000884208D11849091F096841F0F001164A9D
:10143000121F116025E014492831884208D1124951
:10144000091F096841F470610F4A121F116018E00A
:101450000D493C31884208D10B49091F096841F404
:101460007041094A121F11600BE007495031884250
:1014700007D10549091F096841F47021024A121F6A
:1014800011607047080002400804024010B50022B5
:10149000026847F6F0739A430C6A8B6823430C6921
:1014A00023434C6923438C692343CC6923434C6A0F
:1014B00023438C6A23431A430260CB6843600B6862
:1014C00083604B68C36010BD2DE9F0472848006871
:1014D00000F110052E8826480068077AD6B9042F37
:1014E00018D12448007801280FD100212248006833
:1014F00080B2801C214A42F8101030202049088018
:1015000000BF00201B49087003E0072710201C497A
:10151000088027E0AC88A64201D8042000E0022021
:101520000746B44200D93446A0B2A968884780462D
:10153000002005F04FFE8146A2B24946404605F024
:1015400073FCA1B2002006F017F92888001B288040
:1015500068882044688030200949088000020949D1
:10156000088000BF024909680F72BDE8F0870000DB
:10157000FC050020F6050020505C004000600040A3
:101580000E0600200C0600202DE9F04128480068D6
:1015900000F110042688A068C0B1BEB1A588B5428C
:1015A00000D93546A8B2A168884707462088401B65
:1015B0002080608828446080002005F0E9FD804696
:1015C000EAB24146384605F017FC00BF208850B10A
:1015D0004FF44050174908800021084606F0CCF827
:1015E0003020154908802088A188884204DB032028
:1015F0000F490968087218E02088002804DD0520DA
:101600000B490968087210E0208870B90620084963
:101610000968087200210948006880B2801C084AE5
:1016200042F81010302004490880BDE8F081000025
:10163000FC0500200C0600200E060020505C004037
:10164000006000402DE9F84F9B480068457800276E
:10165000BA46062D1BD198480068007800F07F003C
:10166000002813D1944909688878012803D1934947
:101670000968CF690AE0022803D1904909680F6A16
:1016800004E0032802D18D4909684F6A94E0002DD7
:1016900064D189480068408800285FD18648006886
:1016A000C08802285AD1844800680079002855D1A2
:1016B00081480068007800F07F0028B97E48006803
:1016C000808808B97E4F77E07B480068007800F09A
:1016D0007F00012810D1784909684879774909685D
:1016E0008A6900219047002866D173480068807A93
:1016F000002861D0724F5FE06F480068007800F00A
:101700007F00022858D16C480068407900F00F062D
:1017100069480068407900F07009674800684079BE
:1017200000F0800038B1674901EB8600D0F8000C6A
:1017300000F0300806E0634901EB8600D0F8000CA9
:1017400000F4405860480078B04235D9B9F1000F34
:1017500032D1B8F1000F2FD0594F2DE0082D07D10D
:1017600055480068007800F07F0028BB574F23E001
:101770000A2D21D150480068007800F07F00012830
:101780001AD14D480068807AB0B14B480068408853
:1017900090B949480068007970B947480068C08826
:1017A000012809D1444909684879444909688A6986
:1017B0000021904700B9464F57B13F480068A0F854
:1017C00012A03D48006887610020B84700240FE060
:1017D000394A12685078394A1268116988470446B4
:1017E000032C05D10920344909680872BDE8F88F37
:1017F00031480068008A4FF6FF71884204D1092001
:101800002D4909680872F1E7022C03D02A480068C4
:10181000008A20B90820284909680872E6E72648A6
:101820000068007800F08000E0B323480068C088BA
:10183000009021480068008A0099884204D91E4916
:1018400000980968088223E01B480068008A1A494A
:101850000968C98888421BDA17480068008A174956
:10186000096891F82C10884203DA002019490870A1
:101870000EE011480068008A1049096891F82C10A0
:1018800090FBF1F201FB120010B901201149087020
:101890000A48006890F82C10074800688182FFF71A
:1018A00013FE07E0FFE703200349096808720003FD
:1018B0000949088000BF99E7FC05002000060020C8
:1018C000655A00080050004059050020E9590008F9
:1018D000395A0008F60500200C0600207047000069
:1018E0002DE9FF4F83B017460025A5E04FF0000C0F
:1018F0009BE0DFF8DC91B9F800604FEAE67906EB8F
:1019000059794FEAE909A6EBC90909F0FF02DFF8A6
:10191000C091B9F800604FEAE67906EB5979C9F34E
:10192000C7086B4E7688DFF8A89199F8059005FBFB
:101930000966664406F0FF09CDF80890DDF80890C6
:1019400009EB49094FEAC9164FEAE67906EB5979DE
:1019500008EBE903002661E005FB006ADDF818905A
:1019600019F80A90CDF80490DFF86491B9F800A056
:1019700006F101094FEAC909DFF854B19BF804B038
:1019800009FB0BA9B9F5C07F00DD49E04FF0000964
:10199000CDF8009039E04FF0000920E0DDF804A018
:1019A0000AF0800ABAF1000F0BD017F803A0C2F1B9
:1019B000070E4FF0010B0BFA0EFB4AEA0B0A07F871
:1019C00003A002F1010A0AF0FF02072A02DD002249
:1019D0005B1C00E000BF09F1010A0AF0FF09DFF813
:1019E000F0A09AF804A0CA45D8DCDDF804904FEACC
:1019F00049694FEA1969CDF80490DDF8009009F1C2
:101A0000010909F0FF09CDF80090DDF80090B9F167
:101A1000080FC0DB06F1010909F0FF0686429BDBD7
:101A200000BF0CF1010606F0FF0C294E76796645E1
:101A30003FF75FAF6E1CF5B28D42FFF657AF244DF6
:101A40002D88C600DFF888C09CF804C006FB0C5542
:101A5000ADB21F4E3580B146B9F800C04FEAEC79FF
:101A60000CEB59794FEAE909ACEBC909B9F1000F60
:101A700009D1B146B9F800604FEAE67906EB597929
:101A8000C9F3C7040DE0DFF84890B9F800504FEAF9
:101A9000E57905EB59794FEAE90909F1010909F0FE
:101AA000FF040B4DED88A54201DA094DEC80084D8D
:101AB0002E896D794D43AE4205DA054D6D794D4362
:101AC000034E358100E000BF07B0BDE8F08F000095
:101AD0001C16002010B54FF410411D48FEF76BFB9B
:101AE00000201C49C880088001200871002008815E
:101AF000488001204871184908701849087005206D
:101B0000174908700320174908700020164908700B
:101B10001648002101800420154981F84E0100205B
:101B200081F84D01032081F8490081F84A0008201E
:101B300081F84B00A22081F8480006200D4981F869
:101B40004C0000200C4908800C49087010BD0000B2
:101B5000401900201C1600206E0000206F0000209D
:101B60006B0000206C000020660000206400002054
:101B700028160020B4170020680000206D00002007
:101B800010B51A49096848F6BF7201EA020080F0F0
:101B9000200040F4004141F08001144A11601448D3
:101BA000007870B10020124908701248027812497A
:101BB000822005F013FE0F480178022005F0DCFDBD
:101BC00003E00021022005F0D7FD0849096848F626
:101BD000BF7201EA020080F0100080F0200040F4A3
:101BE000004141F08001014A116010BD085C0040D5
:101BF0004C0400204E04002012B8002001200249AD
:101C000008700249087070474D04002054040020F9
:101C1000F8B505460E4612480078F8B900BF1148DD
:101C200004F07AFE0446012000900F480289012347
:101C300021460C4800F0D6FD0B48008900EB40001F
:101C400001010848FEF7B7FA00200749C88008805C
:101C50000881488001200249087000BF0020F8BDBB
:101C600067000020401900201C16002002460020BA
:101C70007047024600207047F8B505460E466A4692
:101C80003146284604F0CCFD08B1FF20F8BD9DF890
:101C900000406A463146284604F0C2FD08B1FF20E4
:101CA000F4E79DF8000004EB002084B2B4F5C07F97
:101CB00003DD00200349088001E002480480002081
:101CC000E4E700006800002070B504460D460120DE
:101CD00002490870FFF7FEFE002070BD6A00002078
:101CE00038B504460D466A462946204604F098FD5C
:101CF00008B1FF2038BD9DF80000084908706A4609
:101D00002946204604F08CFD08B1FF20F2E79DF83B
:101D10000000034908700020ECE700004F0000209D
:101D20005400002038B504460D466A462946204630
:101D300004F076FD08B1FF2038BD9DF8000018B111
:101D40009DF80000302803D100201149087002E0FE
:101D500000200F4908709DF80000012803D09DF86D
:101D60000000312803D101200949087000E000BFBC
:101D70009DF80000022803D09DF80000322803D10E
:101D800002200349087000E000BF0020D4E70000F3
:101D90006D00002038B504460D466A4629462046A7
:101DA00004F03EFD08B1FF2038BD9DF8001088000A
:101DB0000022362101F054FB0020F5E72DE9FC4715
:101DC00080468946012604F059FBC7B202F074FE32
:101DD000044605F049FD05463146134805F017FD58
:101DE0003946114805F013FD21460F4805F01EFD48
:101DF00029460D4805F01AFD8DF800608DF8017038
:101E000020128DF80200E0B28DF8030028128DF840
:101E10000400E8B28DF805000621684607F0A4F832
:101E20000020BDE8FC87000000380140F8B50646F8
:101E30000F466A463946304604F0F2FC08B1FF20EE
:101E4000F8BD9DF8000000F00F049DF800000509A2
:101E5000072C01DC072D01DD0120F1E7601C03499F
:101E60000870681C024908700020E9E76E00002035
:101E70006F0000202DE9FE4305460E4600240BE0CE
:101E800001A802193146284604F0CAFC10B1FF200F
:101E9000BDE8FE83601CC4B2052CF1DB9DF8041084
:101EA0009DF8050001EB002003281AD19DF80600DB
:101EB000312816D19DF80700432812D19DF808005B
:101EC000012801DA0120E3E79DF808000F2801DD71
:101ED0000120DDE79DF80800864981F84C000020CC
:101EE000D6E79DF8060031282CD19DF80700502830
:101EF00028D19DF80800302824D100249DF8041032
:101F00009DF8050001EB0020C01E7A4981F85101BF
:101F10000DE001AA3146284604F082FC08B1FF20FA
:101F2000B6E79DF8041073484D300155641C7148A4
:101F300090F85101A042ECDC00216E484D30015573
:101F40000020A5E79DF804109DF8050001EB002096
:101F500003287CD19DF806003128FAD19DF80700AE
:101F60005128F6D19DF808003028F2D1614890F848
:101F7000510120B15F4890F851014D2801DD012049
:101F800086E75C484D3000F0B3FC5B480068594977
:101F900048642D2081F841005848C1F8880100208C
:101FA0006EE007220021002764E0C0EB001303EB82
:101FB0004303DFF84CC16344DB5D43B300EB400CEB
:101FC0004FEACC134FEAE37C03EB5C7C4FEAEC0C6A
:101FD000DFF82081D8F88881884418F80CC04FF0C9
:101FE000010808FA02F84CEA080C00EB40084FEA36
:101FF000C8134FEAE37803EB58784FEAE808DFF8B4
:10200000F490D9F88891894409F808C029E000EBD8
:10201000400C4FEACC134FEAE37C03EB5C7C4FEAC5
:10202000EC0CDFF8D080D8F88881884418F80CC010
:102030004FF0010808FA02F82CEA080C00EB4008FF
:102040004FEAC8134FEAE37803EB587800E04AE020
:102050004FEAE808DFF89C90D9F88891894409F89C
:1020600008C01AB907224B1CD9B201E0531EDAB2DC
:102070007B1CDFB21F4B5B6CBB4296DC411CC8B2C1
:102080001C49496C81428CDC1A49486CC11700EB31
:102090005171C910491C1B4AD1801648B0F8440040
:1020A0001146088100BF154804F036FC044611486B
:1020B00090F84C0000900F4890F84C30114802897D
:1020C00021460E4800F08EFB0E48008900EB4000D0
:1020D00001010A48FEF76FF800200A49C88008800D
:1020E00008814880D4E69DF80810074804F02BFECC
:1020F0000120CDE6B4170020A001002040190020E7
:1021000050A900201C1600200038014038B50446B4
:102110000D466A462946204604F082FB08B1FF209E
:1021200038BD9DF8000018B19DF80000302803D19B
:102130000020144981F84D019DF80000012803D0CA
:102140009DF80000312803D101200E4981F84D018E
:102150009DF80000022803D09DF80000322803D12A
:102160000220084981F84D019DF80000032803D0A2
:102170009DF80000332803D10320024981F84D0166
:102180000020CDE72816002038B504460D466A46E3
:102190002946204604F044FB08B1FF2038BD9DF8D5
:1021A000000018B19DF80000302803D1052008492F
:1021B00081F84E019DF80000012803D09DF8000031
:1021C000312803D10420024981F84E010020E5E7BF
:1021D0002816002038B504460D466A462946204692
:1021E00004F01EFB08B1FF2038BD9DF80000024935
:1021F00081F848000020F7E7281600202DE9FE4F5F
:102200008046894602AA4946404604F009FB10B1BF
:10221000FF20BDE8FE8F9DF8084002AA49464046CF
:1022200004F0FEFA08B1FF20F3E79DF808704FF4C0
:1022300010407149C1F884017048C1F88801002636
:102240000EE002AA4946404604F0EAFA08B1FF202F
:10225000DFE79DF8081068484D308155701CC6B204
:10226000BE42EEDB042C01D0452C0ED10820624981
:10227000087001F14D00FDF7B5FF064632465E4994
:102280004D315D4805F00AFD17E0492C0ED11420B0
:102290005949087001F14D00FDF7A4FF064632468A
:1022A00055494D31544805F017FE06E04FF4C6710C
:1022B0005148FDF780FF0120ABE700250020019089
:1022C0004D48406CB0F5C07F06DD4FF4C6714A48FA
:1022D000FDF771FF01209CE7474B5A6CD31702EBC7
:1022E0005373DB10A2EBC3033BB9434B596CCB17C1
:1022F00001EB5373C3F3C70507E03F4B586CC3179B
:1023000000EB5373DB105B1CDDB23B484D30FDF737
:1023100069FFC6B201A8009037482B463246D0F874
:10232000881100F0A9F9012035490871487100268B
:1023300028E00020324908802F48D0F88801302159
:1023400001FB0600BDF8041042182E4B012128465F
:10235000FFF7C6FA2A480089401C294908810989E3
:1023600001EB4101C801C11700EB5171BDF8042018
:1023700002EBE101204AD2F88421914200DB06E021
:10238000701CC6B21C4890F84800B042D1DC00BFB7
:1023900000BF1949D1F8880104F0BEFA82461A48F4
:1023A00000781549009091F84810134B93F850317C
:1023B000114E96F8516103FB06118AB20E49D1F80D
:1023C000880112490B78514600F00CFA0C4800893C
:1023D00000EB400001010948FDF7EDFE4FF4C67126
:1023E0000548FDF7E8FE00200549C88008800881FF
:1023F000488000BF0DE7000028160020401900208B
:102400001C1600207A1700206E0000206F000020AC
:102410002DE9FC4706460F464FF00108C14601AAC8
:102420003946304604F0FCF910B1FF20BDE8FC87C6
:102430009DF80400514908700846007818B1084614
:102440000078302802D14FF00108C1464B4800788F
:10245000012803D049480078312803D14FF0020801
:102460004FF0010945480078022803D0434800781E
:10247000322803D14FF001084FF002093F4800789D
:10248000032803D03D480078332802D14FF00208DA
:10249000C14601AA3946304604F0C2F908B1FF200E
:1024A000C4E79DF8044001AA3946304604F0B8F963
:1024B00008B1FF20BAE79DF8040004EB002084B2C5
:1024C0002E48448001AA3946304604F0A9F908B1E3
:1024D000FF20ABE79DF8044001AA3946304604F0DE
:1024E0009FF908B1FF20A1E79DF8040004EB00204C
:1024F00084B22248848040882049898848431F4903
:10250000886008468068B0F5104F09D94FF4104034
:102510008860084680684988B0FBF1F017498880D8
:1025200017481649C86000250BE001AA3946304615
:1025300004F076F900B109E09DF80400104948550F
:102540006D1C0E488168681C8142EED800BF0B48A4
:102550000078042804D1094A9168D068FEF7D8FBB6
:10256000064BCDF800909A885988D868434600F009
:1025700039F903F0CBFF002058E7000040A9002004
:10258000401900202DE9F84F04460D46002600278B
:10259000B0466A462946204604F042F910B1FF20B1
:1025A000BDE8F88F9DF80000801E052822D2DFE8E4
:1025B00000F003090F161B004FF07A563746DFF87C
:1025C0009C801DE04FF07B5637464FF07E5817E059
:1025D0004FF07C564FF07B57DFF8848010E01F4EA1
:1025E0003746DFF880800BE04FF07D563746DFF846
:1025F000788005E04FF07B5637464FF07E5800BF9D
:1026000000BF1A493046FDF769FE82461849FDF7BA
:1026100097FE8146FDF749FF164981F849001349A5
:102620003846FDF75BFE82461149FDF789FE81467B
:10263000FDF73BFF0F4981F84A000C494046FDF782
:102640004DFE82460A49FDF77BFE8146FDF72DFFD0
:10265000084981F84B000020A2E700000000203F5D
:102660000000A03F0000D03F0000F03F00007A448F
:102670000000FA42281600202DE9FC5F0446894636
:1026800015461F460C9E94F8480000EB40004FEAA8
:10269000001BBBF5104F02D30120BDE8FC9F4FF09B
:1026A000000AD0464C4800784C4908714C480078E4
:1026B000487194F84E010022114600F0F9FE019095
:1026C0009DF80500684345490979484384F84F015E
:1026D0009DF8060041494979484384F850019DF826
:1026E000050068433D4909794843B8420BDA9DF833
:1026F00005106943394A127901FB1271C80000EBD9
:10270000D071C1F34F0A94F84D01012817D14FF051
:10271000000804F14D034A4641465046009501F039
:10272000A3FA94F8501101EB4101C801C11700EB65
:102730005171C9103180012084F8510149E094F8A9
:102740004D01022813D194F8488004F14D034A4604
:1027500041465046009501F087FA0020308094F8F9
:1027600050011E490881012084F8510131E094F89C
:102770004D0103282BD14FF0000804F14D034A46C8
:1027800041465046009501F06FFA94F8480094F8DD
:102790005011084400F0FF0804F14D034A46414639
:1027A0005046009501F060FA94F8501101EB410198
:1027B000C801C11700EB5171C910318094F8500164
:1027C000400006490881022084F8510101E0002000
:1027D0003080002061E700006F0000201C16002000
:1027E0006E0000202DE9FF4F8DB0074688469146C8
:1027F000DDF868B01548007810B103F0E7FE03E09B
:10280000012011B0BDE8F08F4546302101A8FDF749
:10281000D2FC002616E005FB06712A4601A8109B93
:1028200005F090F80446DA4607E0E1B201A803F0AB
:1028300007FFAAF1010000F0FF0ABAF1000FF4DC73
:10284000701C86B24E45E6DB0020DAE76A00002005
:102850000149086070470000140401400021234929
:102860008279002A3AD00A46126803689A430B46D6
:102870001A600A1D126803689A430B1D1A600279D8
:1028800011440A6803681A430A60184A0832126839
:1028900003689A43154B08331A601A1D12680368BF
:1028A0009A43124B0C331A604279102A0ED11A1F28
:1028B000126803681A430D4B08331A601A1D126818
:1028C00003681A43094B0C331A600DE0074942793B
:1028D00011440A6803681A430A6005E0027911444A
:1028E0000A6803689A430A607047000000040140C8
:1028F0002DE9F14F8CB001200B900A90EC2006904E
:102900004FF00008002600200990C0490860C04927
:1029100008600998002801DD099802E00C98FDF78D
:1029200061FC0890089818B900200DB0BDE8F08F40
:10293000089ADDE90B0101F0B9F88246BAF1000FFF
:1029400001D10020F1E70B9818B9B248C0F800A0F7
:102950000EE00B98824503DCAE490B98086007E057
:102960000A9818B1AB48C0F800A001E00020DCE7ED
:10297000A848006800EB800101EB4010A64901EB7C
:102980004000001DA149096830F81170A348006893
:10299000C0EBC700042801DD042003E09F48006865
:1029A000C0EBC70007900798002807DD00219B486F
:1029B000079A006802F01EFB984908609749096869
:1029C000C81DC11700EB5171CC100AE0944906985C
:1029D00008550698EC2801D1112000E0EC20069063
:1029E000641CBC42F2DB8B48006800EB800101EB09
:1029F0004010894901EB400040888A490860084638
:102A000001688948FDF7D7FB8248006800EB800128
:102A100001EB4010804901EB40001A307B49096806
:102A200001EB410130F8110005907A48006800EB95
:102A3000800101EB4010784901EB400032307349CE
:102A4000096801EB410130F811100491DDE904102F
:102A500000EB010B6F48006800EB800101EB4010B8
:102A60006D4901EB40001A306849096801EB4101EA
:102A700000EB4100B0F804906648006800EB80016C
:102A800001EB4010644901EB400032305F490968B6
:102A900001EB410100EB41008088039000240FE02E
:102AA000002509E0404608F101085D49085C0BFB80
:102AB00005615D4A50546D1C4D45F3DB761C641C6A
:102AC00005988442ECDB00241CE0002515E04D4510
:102AD00009DA404608F101085149085C0BFB056121
:102AE000514A505408E0404608F101084C49085C3E
:102AF0000BFB09414C4A50546D1C03988542E6DBA0
:102B0000761C641C04988442DFDB4248006800EBBA
:102B1000800101EB4010404901EB40001A303B4975
:102B2000096801EB410100EB41004088A0EB09007E
:102B300002903848006800EB800101EB40103649F4
:102B400001EB400032303149096801EB410100EBF3
:102B5000410041880398081A01904FF000080026B0
:102B600000241FE099213148FDF725FB2C4800EB9C
:102B700008014A462D48FDF7F7FA49462B48029AC4
:102B800001F014F8002507E02848405D0BFB0571B3
:102B90003144254A50546D1C02988542F4DBC844E8
:102BA000761C641C05988442DCDB002420E099211B
:102BB0001E48FDF700FB1A4800EB08011B48039A6A
:102BC000FDF7D2FA1948019A039900F0EFFF0025AA
:102BD00007E01648405D0BFB05713144124A505422
:102BE0006D1C01988542F4DB03988044761C641CBC
:102BF00004988442DBDB07480068112101EB800068
:102C00000B49086000F0D0FC01208EE6B0010020E6
:102C1000BC010020B401002094900008A401002011
:102C200039B10020AC010020E9B5002079B70020BF
:102C3000A00100202DE9F74F86B0074692460024F8
:102C4000A0464FF4C871FE48FDF7B5FA00200546CE
:102C5000FC4908603EE00798401EA84207DD6A1C58
:102C6000B95C785D01F0FAF808B103230CE0785DF7
:102C700001F00DF908B1002306E0785D01F0CBF812
:102C800008B1012300E002230DB9EF480370EE48BC
:102C9000EC490968405C984206D0EA480068401C4C
:102CA000E8490860E8490B54E548E6490968405C92
:102CB000401CC1B2E248E34A12688154032B08D198
:102CC000E0490968405C401CDD49DE4A12688854CE
:102CD0006D1C6D1C07988542BDDBDA480068401CFE
:102CE000D849086060E100200190D748005D20B914
:102CF000D549601C085C012808D0D348005D012834
:102D00007ED1D149601C085C0028F9D1CC4A115D04
:102D1000CD4A105D524600F077FE8346C84B621CD8
:102D2000995CC94B985C524600F06EFE0BEB0001BB
:102D30000591C348025D0346601C185C1118524699
:102D4000012000F061FE81460599494558DD012CBE
:102D500027DB601EBC49085C022822D1601EB84AED
:102D6000105C125D81185246022000F04DFE834631
:102D7000B34B621C995CB44B985C524600F044FE25
:102D800058440390601EAE4A115C5246022000F087
:102D90003BFE00EB09010398814204DA0020039016
:102DA00001E000200390A7480068801EA0422ADDB1
:102DB000A549A01C085C022825D1A14A115DA24AA0
:102DC000105D524600F020FE83469D4A601C125C56
:102DD0009B4BA01C185C11185246022000F014FEF8
:102DE00058440290964AA01C115C5246022000F002
:102DF0000BFE00EB09010298814206DA002000E098
:102E0000D0E0029001E000200290039858B10298AF
:102E100048B1DDE90210884202DA4FF0FF3000E0ED
:102E2000012001900AE0039810B14FF0FF3004E058
:102E3000029808B1012000E0002001900198E8B359
:102E40000198401CD0B9601E7D49085C095D0844AA
:102E5000C1B2601E7A4A1154254609E07A49681CBD
:102E6000095C794841557649681C085C48556D1CD9
:102E700074480068401EA842F0DC1CE00221724A3F
:102E8000601C11546E49095C6D4AA01C105C08441A
:102E9000C1B2601C1154A51C08E06B49681C085C99
:102EA00048556749681C085C48556D1C65480068B2
:102EB000401EA842F1DC6348006800E003E0401EC9
:102EC000604908606DE05F480068801EA04223DD15
:102ED0005D49A01C085C01281ED15949601C095C91
:102EE000574AA01C105C0844C1B2601C1154A51CB8
:102EF00008E05549681C085C48555149681C085C45
:102F000048556D1C4F480068401EA842F1DC4D48F2
:102F10000068401E4B49086001214B480155484854
:102F2000015D0246601C105C084411460855651C92
:102F300008E04549681C085C48554149681C085C24
:102F400048556D1C3F480068401EA842F1DC3D48D2
:102F50000068401E3B490860012C22DB601E3A4994
:102F6000085C01281DD1601E3549085C095D0844D4
:102F7000C1B2601E324A1154254608E03249681C2D
:102F8000085C48552E49681C085C48556D1C2D4846
:102F90000068401EA842F1DC2A480068401E29490A
:102FA000086001E0641C00BF26480068401EA04283
:102FB0003FF799AE0024BBE0214A115D224A105D23
:102FC000524600F021FD83461D4B621C995C1E4B4E
:102FD000985C524600F018FD584405901848025D70
:102FE0000346601C185C11185246022000F00CFDCC
:102FF0008146012C0ADB601E1349085C022805D1BA
:10300000124810F80A00001DA9EB00090D480068DD
:10301000801EA0420ADD0C49A01C085C022805D1D4
:103020000A4810F80A00001DA9EB00090598484558
:103030007CDD012C2CDB601E0349085C022807E0C4
:1030400059B40020A8010020C9B2002020A3000824
:103050001ED1601EDE49085C095D0844C1B2601ED5
:10306000DB4A1154254608E0DA49681C085C4855DB
:10307000D749681C085C48556D1CD7480068401E3D
:10308000A842F1DCD4480068401ED3490860641EA1
:10309000D1480068801EA04223DDCE49A01C085CF8
:1030A00002281ED1CA49601C095CC94AA01C105CD8
:1030B0000844C1B2601C1154A51C08E0C549681C35
:1030C000085C4855C249681C085C48556D1CC248DC
:1030D0000068401EA842F1DCBF480068401EBE499F
:1030E00008600220BB490855B948015D0246601CD2
:1030F000105C084411460855651C08E0B549681C79
:10310000085C4855B249681C085C48556D1CB248BB
:103110000068401EA842F1DCAF480068401EAE497E
:103120000860012C00DB641E02E0FFE7641C00BFA6
:10313000A9480068401EA0423FF73EAF0020A749C3
:1031400008604FF4C871A648FDF735F800252BE15B
:10315000A048405DC8BB04220121A048006801F0DE
:1031600049FF9E4908609F4810F80A209848415D31
:103170009A48006801F03EFF98490860002656E032
:103180009348405D801EB04220DD08EB0600385CAD
:1031900030386421484308EB0601491C795C30391A
:1031A00001EB810100EB410108EB0600801C385C5B
:1031B0003038084480B204900A2288480499006894
:1031C00001F018FF8549086030E038E08048405D34
:1031D000801EB04217D108EB0600401C385C303826
:1031E00008EB0601795C303901EB810100EB41000D
:1031F00080B20490072279480499006801F0FAFE31
:103200007649086012E07248405D401EB0420DD120
:1032100008EB0600385C303880B2049004226F4816
:103220000499006801F0E6FE6C490860F61C6848E5
:10323000405DB042A4DC6648405D8044B3E0654830
:10324000405D01284AD1042202216448006801F04F
:10325000D1FE62490860644810F80A205C48415D6C
:103260005E48006801F0C6FE5C49086000262DE05B
:103270005748405D401EB04219DD08EB0601785CFE
:10328000FDF713FDC0EB001000EB400208EB060158
:10329000491C785CFDF709FD104404900B224F484F
:1032A0000499006801F0A6FE4C4908600DE008EBA7
:1032B0000601785CFDF7F9FC049006224748049962
:1032C000006801F097FE45490860B61C4048405D23
:1032D000B042CDDC3E48405D804464E03D48405D06
:1032E000022827D1042211463C48006801F082FEE2
:1032F0003A4908603D4810F80A203548415D374892
:10330000006801F077FE3549086000260AE008EB06
:103310000600395C08223148006801F06BFE2F4935
:103320000860761C2A48405DB042F0DC2848405DC9
:10333000804438E0042208212848006801F05AFE41
:1033400026490860224810F805B00BEBDB704110ED
:10335000274810F80A202148006801F04BFE1F4959
:103360000860002615E008EB4601491C795C08EB73
:103370004602BA5C01EB022188B200F091FD83465F
:103380000D2259461548006801F034FE13490860C3
:10339000761C0F49485D00EBD071B6EB610FE2DBA4
:1033A0000B48405D80446D1C0B480068854205DA7F
:1033B0000A480068401C00287FF4CAAE074800682D
:1033C000401C18B1012009B0BDE8F08F0020FAE7D9
:1033D00059B40020C9B20020A8010020A401002097
:1033E00039B100201AA300081DA3000820A300087B
:1033F00023A3000810B504461449098820688842B0
:1034000021D303F007FB12492068096808441049DA
:103410000860002020600F49086010E00E48006836
:1034200018B100200B49086009E00A480068B0F5AF
:10343000FA7F04D90848006808B9FF2010BD074882
:1034400000780028EAD00020F8E700005E000020A5
:103450007C00002060000020580000205C0000205C
:1034600070B504460D46164605E03146284600F084
:1034700055FE601E84B2002CF7DC00224FF4805110
:103480000A4800F0BCFA00224FF40051074800F04F
:10349000B6FA00224FF40041044800F0B0FA0022CE
:1034A0004FF48041014800F0AAFA70BD000C0140C1
:1034B0002DE9F74F86B0814617464FF0000AD046F7
:1034C00000200390B9F1070F29D2DFE809F02804A2
:1034D0000A10161C22002E480390082401250826F5
:1034E00027E02C48039008240125082621E02A48DB
:1034F00003900C2401250C261BE02848039010247F
:103500000125102615E026480390302402251826B0
:103510000FE02448039040240225202609E0BDF84E
:10352000081008469DF80A1040EA014009B0BDE8BD
:10353000F08F00BF01208DF808008DF809508DF83C
:103540000A6017F80A00202819DB17F80A007E28FD
:1035500015DC17F80A00A0F12008039808FB0408FE
:10356000C8F3074BC8F30720059008F0FF0004904C
:1035700000945846079BDDE9042105F099FABDF84F
:10358000081008469DF80A1040EA0140CEE7000006
:1035900080DF1D0080E21D0000BE1D0080D71D00E1
:1035A00000FF1D00505A1E002DE9F04140F2E97164
:1035B0002B48FCF700FE01F0B3FE01F055FD294851
:1035C0000068401C00BB00202649086008460068CF
:1035D00001F09AFF2348006801F000FEFDF7B4FBFC
:1035E000074601240EE0204601F08EFF204601F040
:1035F000F5FDFDF7A9FB0646BE4202DA374619483B
:103600000460641C072CEEDD1648006801F07CFFA6
:103610001448006801F0E2FD00241BE0002514E0DE
:10362000C4EB041000EB40000D490844405D00F07D
:10363000110008B1012000E00020C4EB041101EBEF
:103640004101074A114448556D1C074800688542EE
:10365000E6DB641C044800688442DFDBBDE8F081DF
:1036600050A90020BC010020A001002008B50121C4
:103670006E4800F06FF94FF44050ADF800000320A1
:103680008DF8020010208DF803006946684800F0AC
:10369000D5F84FF44040ADF800006946644800F0AA
:1036A000CDF84020ADF800006946624800F0C6F849
:1036B0004FF40040ADF8000069465E4800F0BEF8E7
:1036C0004FF48040ADF8000069465A4800F0B6F863
:1036D0004FF48060ADF800006946554800F0AEF840
:1036E0000220ADF800006946514800F0A7F801201B
:1036F000ADF8000069464E4800F0A0F80120ADF892
:10370000000069464B4800F099F80220ADF800002F
:103710006946484800F092F80420ADF80000694678
:10372000444800F08BF84FF40060ADF800006946A3
:103730003F4800F083F81020ADF8000069463D488E
:1037400000F07CF82020ADF800006946394800F010
:1037500075F82020ADF8000010208DF8030003203C
:103760008DF802006946344800F068F8202132489C
:1037700000F041F98020ADF8000069462E4800F0C5
:103780005DF820212C4800F036F91020ADF800003B
:103790006946294800F052F82021274800F02BF90B
:1037A0004020ADF8000048208DF80300694622480B
:1037B00000F044F84FF40050ADF8000048208DF8B8
:1037C000030069461B4800F039F80820ADF80000F6
:1037D00004208DF803006946174800F02FF80720F1
:1037E000ADF8000000208DF803006946124800F093
:1037F00025F84FF40070ADF8000018208DF8030094
:1038000003208DF8020069460B4800F017F84FF4CA
:103810008060ADF8000003208DF8020028208DF8AC
:1038200003006946044800F009F808BD00023000B2
:10383000000C014000100140000801402DE9F0415A
:10384000024600250026002000230024002791F8CE
:1038500003C00CF00F0591F803C00CF0100CBCF184
:10386000000F03D091F802C04CEA050591F800C0A2
:10387000BCF1000F31D0146800202BE04FF0010C98
:103880000CFA00F3B1F800C00CEA03069E4220D106
:1038900083004FF00F0C0CFA03F7BC4305FA03FC4E
:1038A0004CEA040491F803C0BCF1280F06D14FF094
:1038B000010C0CFA00FCC2F814C00AE091F803C035
:1038C000BCF1480F05D14FF0010C0CFA00FCC2F816
:1038D00010C0401C0828D1D31460B1F800C0BCF15E
:1038E000FF0F34DD546800202EE000F1080C4FF08B
:1038F000010808FA0CF3B1F800C00CEA03069E4276
:1039000021D183004FF00F0C0CFA03F7BC4305FAEA
:1039100003FC4CEA040491F803C0BCF1280F05D164
:1039200000F1080C08FA0CF8C2F8148091F803C0F2
:10393000BCF1480F07D100F1080C4FF0010808FA5C
:103940000CF8C2F81080401C0828CED35460BDE8A3
:10395000F0810000F0B50A46002300240021002574
:1039600000F00046B6F1004F02D11D4EF16901E0B2
:103970001B4E7168C0F3034583B200F44016B6F5E0
:10398000401F08D121F07061154E766826F07066F0
:10399000134F7E6012E000F48016B6F5801F06D14A
:1039A000032606FA05F4A14341F0706106E0460DD6
:1039B000360103FA06F6B14341F0706122B1460DBB
:1039C000360103FA06F6314300F00046B6F1004F27
:1039D00002D1034EF16101E0014E7160F0BD0000C3
:1039E000000001400246002093680B400BB101200B
:1039F00000E00020704741617047016170470AB1E3
:103A0000016100E041617047F0B50446002324B134
:103A1000012C1CD0022C37D12FE0032091FBF0F5B4
:103A20001E48805C001D0A2606FB0503032091FB4F
:103A3000F0F500FB1510012802D0022804D101E0A6
:103A40001B1D02E0DB1D00E000BF00BF23E00846B5
:103A500001EBD0767710124EB65C361D4FF00B0C92
:103A60000CFB07660D4601EBD5777F10A1EB4707EE
:103A70004FF0060C0CFB07630DE00A48805C001D4C
:103A8000082505FB010306E00748805C001D0D25A5
:103A900005FB010300BF00BF1846F0BD1AA30008D4
:103AA0001DA3000820A3000823A300082DE9F04768
:103AB00006460F4690461B2E01DB022004E00A2E2C
:103AC00001DB012000E0002081464D4663E02A46EC
:103AD00041463846FFF7AEF800285BD0EDB9012427
:103AE00018E02F490968C81D04EB840101EB44115B
:103AF0002C4A02EB4101091D2B4A126831F81210C1
:103B0000C21700EB5272B1EBE20F02DB2046BDE8B8
:103B1000F087641C092CE4DD3CE0012D1CD10A2453
:103B200017E01F490968C81D04EB840101EB44112B
:103B30001C4A02EB4101091D1B4A126831F81210A0
:103B4000C21700EB5272B1EBE20F01DB2046DEE759
:103B5000641C1A2CE5DD1DE0022D1BD11B2417E08F
:103B60000F490968C81D04EB840101EB44110D4A9B
:103B700002EB4101091D0C4A126831F81210C217FC
:103B800000EB5272B1EBE20F01DB2046BFE7641C91
:103B9000282CE5DD6D1C022D99DD0020B7E7000023
:103BA000A401002094900008B00100202DE9F0410C
:103BB0000346002434E01D783DB31E781A4FBD5DE6
:103BC000002015E0194F57F822703F5C2F444FF04A
:103BD000FF0C97FBFCF80CFB1877FEB2471CDF5D6F
:103BE000DFF84CC01CF806C087EA0C071F54401CC5
:103BF0009042E7DB104603E0461C9E5D1E54401CCD
:103C00008E18761E8642F7DC09E0002003E0451C92
:103C10005D5D1D54401C8D186D1E8542F7DC641CD3
:103C20008C42C8DBBDE8F0816E9D00088C0000204E
:103C30006E9C000870B50A480468001D0568001DE8
:103C40000668344454B108220649204600F0C4F8FE
:103C5000042204491031284600F0BEF870BD00006F
:103C6000E8F7FF1F700400202DE9F047A2B00546D9
:103C70000E4617469846DDF8A8A026480580802104
:103C800002A8FCF798FA24480178491C2348FCF75D
:103C900092FA002439E018F8040020490870084618
:103CA0000078202811DB084600787E280DDC1C49AE
:103CB00091F84E01194A02A9FFF7FAFB0190164844
:103CC0000178491C1548FCF776FA124801889DF8DE
:103CD000050001EBC000B0F5C07F03DD012022B07C
:103CE000BDE8F08706EB46034FEAC3194FEAE973D4
:103CF00009EB537307EBE3029DF806109DF80500EE
:103D000002ABFDF7EDFD601CC4B25445C3DB0020DF
:103D1000E5E700001C16002066000020640000207B
:103D20002816002000BFFEE710B54FF480511C4854
:103D3000FFF761FE4FF400511948FFF75CFE4FF4A6
:103D400000411748FFF757FE4FF480411448FFF732
:103D500052FE0122D1021248FFF751FE4FF4C0700B
:103D600002F09EFC00224FF400610D48FFF747FE71
:103D70000122D1020A48FFF742FE002240210948F1
:103D8000FFF73DFE08210848FFF72CFE012803D16C
:103D900000200649087002E001200449087010BDA7
:103DA000000C0140001001400008014055000020B7
:103DB00010B500F0B1FEFFF759FCFCF735FE02F03C
:103DC00089FD05F0C6F802F0C7FD00F0FAF9FFF72B
:103DD000ABFFFDF77FFE10BD30B50B46002100BFE5
:103DE00016E00A24B4EB107F05D9302404EB1074DC
:103DF00003F8114005E0412404EB10740A3C03F879
:103E00001140000100254C00641C1D554C1CE1B202
:103E10009142E6DB30BD0146302903DB392901DC64
:103E200001207047412903DB5A2901DC0120F8E712
:103E300020290FD024290DD025290BD02A2909D0DB
:103E40002B2907D02D2905D02E2903D02F2901D0C9
:103E50003A2901D10120E4E70020E2E70246812A65
:103E600001DB9F2A03DDE02A0FDBEB2A0DDC402972
:103E70000BDB9F2A01D1FC2903DCEB2A03D1BF29EC
:103E800001DD002070470120FCE70020FAE7014631
:103E9000302903DB392901DC012070470020FCE7D1
:103EA000014648F24010814208DB49F6FC7081422D
:103EB00004DCA1F50140403881B202E001F57B50FD
:103EC00081B2C8B20A1202EB420200EB821080B249
:103ED0007047000010B53F480078012846D100F037
:103EE0008DF83D49097808443C49097888423DDC11
:103EF0003B48007800F007003949087039480978D4
:103F0000405C00F001024FF480513748FFF777FD25
:103F1000344833490978405CC0F340024FF4005103
:103F20003148FFF76CFD2F482D490978405CC0F3FC
:103F300080024FF400412C48FFF761FD29482849D1
:103F40000978405CC0F3C0024FF480412648FFF777
:103F500056FD00202149087021480078401E204964
:103F6000087022480078401C2049087020480078DA
:103F700001281AD100201E49087000224FF48051F8
:103F80001948FFF73CFD00224FF400511648FFF797
:103F900036FD00224FF400411348FFF730FD0022A8
:103FA0004FF480411048FFF72AFD1048007804289C
:103FB0000ADB00200D490870064908700D4800789A
:103FC00010B901200C49087004480078401C0349CE
:103FD000087010BD4D0000204F000020420000205E
:103FE0005000002045000020000C0140510000203E
:103FF0004E000020430000204400002013480078B9
:10400000012821D112480078012804D111480078F4
:10401000401C1049087010480E49097830F811000A
:10402000642190FBF1F0362809DD0B480949097835
:1040300030F81100642190FBF1F0C0B2704700200D
:1040400002490870034908700020F7E700000020CB
:1040500042000020010000200200002010B510E006
:104060000E4A0F490F48006802F0DAFB38B90B48D6
:1040700002780B490B48006800F0A2FE01E000F056
:1040800017F80948007810B90848007808B10120ED
:1040900000E000200128E3D010BD000070000020E7
:1040A0007400002078000020540400205C000020F0
:1040B00008B512A0006800900121684604F054FF82
:1040C00000200F4908700F49087000210846FDF7CD
:1040D0009FFD02F01BFA4FF480510B4803F0F2FEF3
:1040E0004FF41041094803F0EDFE00200849086034
:1040F0000849086002F08EFC08BD00005500000071
:10410000540400205C0000201C0600204019002000
:10411000600000205804002000BFFEE770B5044690
:104120000D46234823490978405C00F001024FF412
:1041300080512148FFF763FC1D481E490978405C07
:10414000C0F340024FF400511B48FFF758FC1848D9
:1041500018490978405CC0F380024FF400411648CA
:10416000FFF74DFC124813490978405CC0F3C002C8
:104170004FF480411048FFF742FC00200F490870BF
:1041800000BF0E480078A042FBDB2DB10948007843
:10419000401C0849087004E006480078401E0549A4
:1041A00008700448007800F007000249087070BDEC
:1041B0004500002050000020000C0140420000207B
:1041C000704708B54FF4E06000F054F81D208DF8FA
:1041D000000000208DF801008DF8020001208DF80C
:1041E0000300684600F00EF825208DF8000002203C
:1041F0008DF8010001208DF80300684600F002F8F8
:1042000008BD000070B5002100230F22C47804B35C
:10421000154C246804F4E064C4F5E064210AC1F19B
:104220000403CA40447804FA03F18478144021431B
:1042300009010E4C0678A155047804F01F050124ED
:10424000AC4005786D11AD0005F1E025C5F80041E1
:1042500009E0047804F01F050124AC40044D067801
:10426000761145F8264070BD0CED00E000E400E05A
:1042700080E100E002490143024A116070470000FA
:104280000000FA050CED00E02DE9F84F06460F4658
:1042900090464FF0010A00BFBAF1000F04D04FF072
:1042A000000A0120FA4908700024304602F0F8F9AB
:1042B000A01984B24FF0000922E017F8095005F068
:1042C00001054FF0000B11E00020009005F0800088
:1042D00008B188200090009802F084FA6806050E64
:1042E000601C84B20BF1010000F0FF0BBBF1080F62
:1042F00002DAB4F5C07FE7DB09F1010000F0FF0945
:10430000C145DADBB4F5C07F05DAC4F5C07084B20C
:10431000204602F0C5F900224FF40061DD48FFF7A6
:104320006EFB0122D102DB48FFF769FB0120DA496D
:1043300008700024304602F0B3F9A01984B24FF09F
:10434000000922E017F8095005F002054FF0000BB4
:1043500011E00020009005F0800008B18820009056
:10436000009802F03FFA6806050E601C84B20BF15B
:10437000010000F0FF0BBBF1080F02DAB4F5C07FBB
:10438000E7DB09F1010000F0FF09C145DADBB4F514
:10439000C07F05DAC4F5C07084B2204602F080F90F
:1043A00000224FF40061BB48FFF729FB0122D10234
:1043B000B848FFF724FB0120B749087000243046B5
:1043C00002F06EF9A01984B24FF0000922E017F84C
:1043D000095005F004054FF0000B11E0002000909B
:1043E00005F0800008B188200090009802F0FAF9EA
:1043F0006806050E601C84B20BF1010000F0FF0B93
:10440000BBF1080F02DAB4F5C07FE7DB09F1010068
:1044100000F0FF09C145DADBB4F5C07F05DAC4F569
:10442000C07084B2204602F03BF900224FF40061D4
:104430009848FFF7E4FA0122D1029648FFF7DFFA25
:104440000120954908700024304602F029F9A0198E
:1044500084B24FF0000922E017F8095005F0080572
:104460004FF0000B11E00020009005F0800008B133
:1044700088200090009802F0B5F96806050E601CCF
:1044800084B20BF1010000F0FF0BBBF1080F02DA60
:10449000B4F5C07FE7DB09F1010000F0FF09C14579
:1044A000DADBB4F5C07F05DAC4F5C07084B220460B
:1044B00002F0F6F800224FF400617648FFF79FFA09
:1044C0000122D1027348FFF79AFA0120724908705D
:1044D0000024304602F0E4F8A01984B24FF000093D
:1044E00022E017F8095005F010054FF0000B11E01D
:1044F0000020009005F0800008B18820009000980E
:1045000002F070F96806050E601C84B20BF1010020
:1045100000F0FF0BBBF1080F02DAB4F5C07FE7DB58
:1045200009F1010000F0FF09C145DADBB4F5C07FF5
:1045300005DAC4F5C07084B2204602F0B1F800225A
:104540004FF400615348FFF75AFA0122D102514853
:10455000FFF755FA0120504908700024304602F058
:104560009FF8A01984B24FF0000922E017F8095013
:1045700005F020054FF0000B11E00020009005F041
:10458000800008B188200090009802F02BF968069E
:10459000050E601C84B20BF1010000F0FF0BBBF1B3
:1045A000080F02DAB4F5C07FE7DB09F1010000F083
:1045B000FF09C145DADBB4F5C07F05DAC4F5C07088
:1045C00084B2204602F06CF800224FF400613148BA
:1045D000FFF715FA0122D1022E48FFF710FA012049
:1045E0002D4908700024304602F05AF8A01984B210
:1045F0004FF0000922E017F8095005F040054FF090
:10460000000B11E00020009005F0800008B1882028
:104610000090009802F0E6F86806050E601C84B26F
:104620000BF1010000F0FF0BBBF1080F02DAB4F54B
:10463000C07FE7DB09F1010000F0FF09C145DADBCB
:10464000B4F5C07F05DAC4F5C07084B2204602F02C
:1046500027F800224FF400610E48FFF7D0F901223D
:10466000D1020C48FFF7CBF901200B490870002458
:10467000304602F015F8A01984B24FF0000929E085
:1046800017F8095005F080054FF0000B18E0000006
:104690004D000020000C014043000020002000904D
:1046A00005F0800008B188200090009802F09AF888
:1046B0006806050E601C84B20BF1010000F0FF0BD0
:1046C000BBF1080F02DAB4F5C07FE7DB09F10100A6
:1046D00000F0FF09C145D3DBB4F5C07F05DAC4F5AE
:1046E000C07084B2204601F0DBFF00224FF400616D
:1046F0000848FFF784F90122D1020648FFF77FF945
:104700000120054908700548007801283FF4C4AD30
:10471000BDE8F88F000C0140430000204D00002050
:1047200070B502264748006844784648006800781B
:1047300000F07F00002844D1092C03D101F012FAC7
:1047400006465FE0052C14D13E480068C0787F28FB
:104750000BDC3C480068807838B93A4800688088AB
:1047600018B938480068807A08B1082565E0002645
:1047700048E0032C0ED133480068C078012807D1E7
:1047800030480068808818B901F010FA064639E010
:10479000022637E0012C35D12A480068C07801286C
:1047A0000DD128480068808848B926480068407ABA
:1047B00000F0200018B101F061F8064622E0022660
:1047C00020E020480068007800F07F00012805D133
:1047D0000B2C17D101F066FA064613E01948006861
:1047E000007800F07F0002280BD1012C03D101F0EA
:1047F00045F8064606E0032C04D101F0EBF9064625
:1048000000E002264EB1E0B20F4A126851698847B3
:104810000646032E01D109250FE00EB108250CE054
:10482000062500210948006880B2801C084A42F829
:10483000101030200749088000BF024909680D7236
:1048400070BD0000FC05002000060020505C004008
:10485000006000400E0600207047000001210B4858
:10486000016000200A4A108010460088074A106044
:104870000020121D10604FF4E050054A10801046D1
:104880000088024A1060002070470000405C004031
:104890000606002001461048007808B9002070473D
:1048A0000D480078012809D1C1F1300202EBD27025
:1048B00040104FF6FF7303EAC000F0E706480078A7
:1048C000022806D1C1F130004FF6FF7303EAC000A1
:1048D000E5E70020E3E700006D00002070B5044626
:1048E00000250CB90B4D06E0012C01D10A4D02E068
:1048F000022C00D1084D0DB9022070BD0748006898
:10490000856100210548006841820020A8470020F9
:10491000F3E700005974000875740008FC050020D6
:1049200010B504460249204601F074F810BD00009D
:10493000B805002010B504460249204601F06AF887
:1049400010BD0000B005002070B50546064800689F
:10495000C478042C01DD002070BD044800EBC401C4
:10496000284601F057F8F7E7FC050020C8050020AD
:104970000246002901DD02207047002A01DD0220E5
:10498000FAE70020F8E700000146084800680078D0
:1049900000F07F00212807D1022901D100207047B3
:1049A000222901D10020FAE70220F8E7FC050020C7
:1049B00010B5002028490968887227490968C8721B
:1049C0002648C079244909684872002002F042FE56
:1049D0004FF40071002002F0DDFE1021002000F0F5
:1049E000B7FB4021002002F065FE8021002002F08C
:1049F000B3FE002002F0ECF9194890F82C100020CA
:104A000002F06AFE002002F08DFE0021022002F07A
:104A1000C1FE4FF4C071022002F09EFE4FF4A0715F
:104A2000022002F047FE0021022002F0A5FE4021F4
:104A3000022002F051FE4FF44051022000F068FBCA
:104A40003021022000F084FB002002F00BFE012048
:104A50000449086010BD0000FC05002038A30008D0
:104A60005C050020E805002003480068807A10B14A
:104A70000520024908607047FC050020E805002079
:104A80000420014908607047E8050020704770471E
:104A900010B5FFF7CFF80020054909688872FFF7C5
:104AA000DDFE02F089FE00200249086010BD000012
:104AB000FC050020E80500202DE9F84F0A2001F050
:104AC000D1FB124840884FF6FF7101EA800A504638
:104AD000FBF7E6FC4FF08B410090FBF731FC83467F
:104AE000FBF710FD80464FF06632094BFBF766FC82
:104AF00006460022074BFBF761FC0446FBF7E9FC86
:104B00001FFA80FA5046BDE8F88F000084000020AC
:104B100066660A4000408F4010B50121084600F04B
:104B200017F8012144F27D2000F042F80121022013
:104B300000F01EF810BD000001460020034A506836
:104B400020F44040084350607047000000100240CD
:104B500029B1064A52690243044B5A6104E0034AF0
:104B600052698243014B5A617047000000100240B5
:104B700029B1064AD2690243044BDA6104E0034AD0
:104B8000D2698243014BDA61704700000010024095
:104B900029B1064A12690243044B1A6104E0034A30
:104BA00012698243014B1A617047000000100240F5
:104BB00029B1064A92690243044B9A6104E0034A10
:104BC00092698243014B9A617047000000100240D5
:104BD00029B1064AD2680243044BDA6004E0034A72
:104BE000D2688243014BDA60704700000010024037
:104BF00030B500210022002400232D4D6D6805F002
:104C00000C0121B1042905D0082923D105E0294D43
:104C1000056022E0274D05601FE0254D6D6805F415
:104C20007012234D6D6805F48034022505EB924225
:104C30001CB9214D554305600BE01D4D6D6805F411
:104C400000351DB11C4D5543056002E0194D55431B
:104C5000056002E0174D056000BF00BF144D6D6890
:104C600005F0F0010909154D6B5C0568DD404560F4
:104C70000F4D6D6805F4E061090A104D6B5C4568E5
:104C8000DD4085600A4D6D6805F46051C90A0B4D21
:104C90006B5C4568DD40C560054D6D6805F44041BD
:104CA000890B074D6B5CC568B5FBF3F5056130BD3D
:104CB0000010024000127A0000093D002404002088
:104CC000340400200149086070470000D8004242C7
:104CD00010B50446072C01D02E4804702D480078EA
:104CE00008284ED2DFE800F004111A202B384E4F6E
:104CF0002948006828B900F053F8062025490870B3
:104D000002E005202349087041E000F049F8042042
:104D10002049087001202049086038E002201D4920
:104D200048700320087032E01A484078401E194944
:104D300048700846407808B90420087027E01748F2
:104D4000006883B243F01003144803600520114942
:104D500008700A2048701AE00E484078401E0D493D
:104D600048700846407858B90C48006883B223F070
:104D700010030A48036006200870002006490860F6
:104D800005E000BF00BF06200249087000BF00BF59
:104D900010BD0000ED050020F0050020405C004043
:104DA0000549096888B220F00400034908604FF4FF
:104DB0003F41014A11607047405C0040704700006D
:104DC00037B504460D469DF808000A2804D1294647
:104DD0002046FCF71DFF3EBD9DF808000D2804D1BC
:104DE00029462046FCF745FFF5E79DF808000C280A
:104DF00004D129462046FCF739FFECE79DF808006E
:104E0000102801D10020E6E79DF808001B283DD1BD
:104E100002AA2946204601F003FD08B1FF20DAE787
:104E20009DF80800242804D129462046FCF724FFD9
:104E3000D1E79DF80800402804D129462046FCF718
:104E400043FFC8E79DF808004D2804D129462046B5
:104E5000FCF746FFBFE79DF80800612804D129460A
:104E60002046FCF75FFFB6E79DF80800642804D1F0
:104E700029462046FCF78EFFADE79DF8080076280E
:104E800004D129462046FCF799FFA4E79DF80800C5
:104E90001C2801D101209EE79DF808001D286DD136
:104EA00002AA2946204601F0BBFC08B1FF2092E788
:104EB0009DF80800212804D129462046FCF7B6FFBA
:104EC00089E79DF80800482804D129462046FDF7C7
:104ED0001DF980E79DF80800662804D12946204680
:104EE000FDF752F977E79DF80800682804D12946B4
:104EF0002046FDF76FF96EE79DF808006B2804D196
:104F000029462046FDF77AF965E79DF808007728DD
:104F100004D129462046FDF735FB5CE79DF80800E3
:104F2000762816D102AA2946204601F079FC08B15C
:104F3000FF2050E79DF8080030280AD12946204676
:104F4000FDF766FA002010490870FFF7B1F800205D
:104F500041E79DF80800282810D102AA29462046DA
:104F600001F05EFC08B1FF2035E79DF808006B28D2
:104F700004D129462046FCF77DFF2CE79DF8080068
:104F800001F074FC27E700005C00002070B50246C9
:104F9000C2EB021404EB4404144D2C44645C04F092
:104FA000200404B170BD921E891E002019E0002368
:104FB00014E00F4C245CC3F104060125B5402C40DD
:104FC0000CB1302400E02024D518C5EB051505EB05
:104FD0004505064E35440E18AC555B1C052BE8DB29
:104FE000401C0528E3DB00BFDCE7000050A90020DF
:104FF000C7010020F0B503460D46581C18B198189B
:10500000B0F5486F02DD4FF0FF30F0BD002124E025
:10501000501A401E012404FA00F02840E0B158184C
:10502000C61700EB5676F6100E4FBE5D5C18E717FC
:1050300004EB5777FF10A4EBC707C7F1070C012754
:1050400007FA0CF73E435818C71700EB5777FF10C5
:10505000DFF810C00CF80760491C9142D8DB9818A3
:10506000D3E7000039B10020F0B5254E306836682E
:10507000711E0122012500233DE0002438E000BF1D
:1050800010445242002A13DA2944002903DB1C4E43
:105090003668B1420CD1002901DA002602E0184E30
:1050A0003668761E31466D42801E062800D1401EAD
:1050B000C0EB001606EB4606124F3E44765C06F047
:1050C0002006002EDCD1104EF65CC4F1070C01273F
:1050D00007FA0CF73E400EB1022600E00026C0EBB6
:1050E000001707EB4707DFF81CC067447E54641CB9
:1050F000082CC4DB5B1C054E3668B342BDDBF0BD3B
:10510000A001002050A90020E9B50020AC0100203A
:1051100030B50E4C04EB8003D3F8003C4BF68F7493
:1051200003EA040201F480530BB182F4805201F4CB
:1051300000530BB182F4005242F4004343F0800369
:10514000024D05EB8004C4F8003C30BD0050004027
:1051500030B50E4C04EB8003D3F8003C48F6BF7426
:1051600003EA040201F010030BB182F0100201F017
:1051700020030BB182F0200242F4004343F080038D
:10518000024D05EB8004C4F8003C30BD00500040E7
:1051900070B502460B46002019E0002114E00D4CCA
:1051A000245CC1F106060125B5402C400CB1302429
:1051B00000E020245518C5EB051505EB4505064E06
:1051C00035441E18AC55491C0729E8DB401C07284C
:1051D000E3DB70BDC001002050A9002070B503467C
:1051E0004B4C246834B1012C02D0022C06D103E0D0
:1051F000002205E0082203E0182201E0102200BF8F
:1052000000BF1A44910200200CE0C0F10E050124F9
:10521000AC400C402CB1C0F1040540F23754AC4016
:105220006140401C0528F0DB01EB822145F212446D
:105230006140002009E0012484400C400CB130257D
:1052400000E02025334C2554401C0528F3DD01F0F7
:1052500040040CB1302500E020252F4C84F86F511C
:1052600001F080040CB1302500E020252A4C84F8A0
:10527000705101F480740CB1302500E02025264CDB
:1052800084F84351092010E0012484400C400CB103
:10529000302400E02024C0F10E05C5EB051505EB18
:1052A00045051D4E35442C72401C0E28ECDD0020B7
:1052B00012E0012484400C400CB1302500E0202590
:1052C000164C2468641E241AC4EB041404EB440432
:1052D000114E34442572401C0728EADD30260F4C5D
:1052E0002468083C0B4D2E5508200DE00124844015
:1052F0000C400CB1302500E02025084C24680F3C00
:105300002618044CA555401C0E28EFDD70BD00008A
:10531000B0010020B8AA002050A90020A001002060
:1053200030B500210846FFF733FF72490968C81FEE
:105330000021FFF72DFF6F480068C11F0020FFF715
:1053400027FF00242DE020216B480155C4EB0410F9
:1053500000EB4000694A1044C17166480068083893
:105360002044C0EB001000EB40001044C1716148C4
:1053700000680838C0EB001000EB400010440155F5
:105380005C480068083802195B488154C4EB04107B
:1053900000EB4000594A024456480068083811544E
:1053A000641C082CCFDB00240BE0202152482D3058
:1053B0000155C4EB041000EB4000504A1044017248
:1053C000641C092CF1DB002413E02021494800680B
:1053D0000838021948482D3081544648006808387A
:1053E0002044C0EB001000EB4000444A104401721E
:1053F000641C082CE9DB00F0D3F9002447E04049A5
:10540000096801EB810202EB41113E4A02EB4101C6
:105410000E3131F814000621FFF7B8FD3848006856
:1054200000EB800202EB4010364A02EB40000E30E7
:1054300030F814100620FFF7A9FD00251AE0304AC5
:10544000126802EB820303EB42122E4B03EB420283
:105450000E3232F815102A4A126802EB820303EB6F
:105460004212284B03EB42020E3232F81400FFF7CF
:105470008DFD6D1C2248006800EB800101EB40109F
:10548000204901EB40008089A842D8DC641C1C48FC
:10549000006800EB800101EB40101A4901EB40006D
:1054A0008089A042ABDC08241EE0204604EBD071CA
:1054B0004910A4EB410109B9302100E02021C4EBDF
:1054C000041202EB42020D4B1A449171204604EB88
:1054D000D0714910A4EB410109B9302200E020222B
:1054E00005492D390A55641C024800680938A04254
:1054F000DBDA30BDA00100208BAA002050A90020DB
:10550000B401002094900008F0B502460020C8E0E5
:105510000021C0E0C1EB011303EB4303644C2344BF
:105520001B5C03F02003002B75D1072A78D2DFE83B
:1055300002F004101C2733465B00431803EBD374BE
:105540006410A3EB44040CB9012400E000242546B8
:105550007FE0034600EBD3746410A0EB44040CB965
:10556000012400E00024254673E0032391FBF3F4BB
:1055700003FB14130BB9012300E000231D4668E070
:105580004318032493FBF4F604FB16330BB90123F1
:1055900000E000231D465CE0032691FBF6F604467E
:1055A00000EBD47706EB670303EBD3767610A3EB1F
:1055B00046060EB9012600E00026354649E000FB0C
:1055C00001F4032694FBF6F706FB174600FB01F3F4
:1055D00003EBD3746410A3EB440434440CB90124EA
:1055E00000E00024254634E000FB01F6032796FB8B
:1055F000F7FC07FB1C6700FB01F404EBD476761084
:10560000A4EB4606BB1903EBD3767610A3EB460654
:105610001EB9012602E03DE002E00026354618E012
:1056200000FB01F6032796FBF7FC07FB1C664418FA
:1056300004EBD4777F10A4EB4707F31903EBD37681
:105640007610A3EB46060EB9012600E0002635468B
:1056500000BF00BFC1EB011303EB4303144C234411
:105660001B5C03F0FE04C1EB011303EB4303104E7C
:1056700033441B5C03F00203012B01DD012300E036
:1056800000236B401C43C1EB011303EB4303084EA3
:1056900033441C54491C074B1B689942FFF63AAF30
:1056A000401C044B1B689842FFF632AFF0BD00006F
:1056B00050A90020A001002010B500F001F810BD95
:1056C0000CB50020019000903348006840F4803011
:1056D0003149086000BF3048006800F40030009095
:1056E0000198401C0190009818B90198B0F5A06F7E
:1056F000F1D12948006800F4003010B10120009079
:1057000001E0002000900098012843D12348006860
:1057100040F01000214908600846006820F00300AE
:1057200008600846006840F0020008601A484068B7
:10573000194948600846406848600846406840F497
:10574000806048600846406820F47C104860084645
:10575000406840F4E81048600846006840F08070F7
:10576000086000BF0C48006800F000700028F9D005
:105770000948406820F0030007494860084640682F
:1057800040F00200486000BF0348406800F00C0091
:105790000828F9D10CBD0000001002400020024092
:1057A00030B5244B1B68062B00DC30BD214B1B6839
:1057B0001A0300200CE0C0F111040123A3401340A0
:1057C0002BB1C0F1050441F62573A3405A40401C9B
:1057D0000628F0DB174B1B6802EB0332002025E0A4
:1057E000002120E000EB40035C180123A34013409C
:1057F0000BB1302400E02024C0EB001303EB430383
:105800000D4D1D440D4B1B680B3B0B44EC540B4BD7
:105810001B680B3B0B44C3EB031303EB4303064D25
:105820002B441C54491C0329DCDB401C0628D7DB15
:1058300000BFBAE7B401002050A90020A001002059
:105840001CB54FF48020FDF703F84FF48020009042
:1058500000208DF8040008208DF8050001208DF847
:1058600006006846FCF7FAFF1CBD10B50020FFF7E4
:1058700029FA0121C805FFF77BF910BD2DE9F04792
:1058800054480068007800F07F08B8F1000F0AD192
:1058900050480068407A00F0DF004E4909684872BD
:1058A0000020BDE8F087B8F1020F7CD149480068BC
:1058B000408818B947480068007908B10220F0E72D
:1058C000DFF8149143480068477927F080052C469B
:1058D00040480068407900F0800038B13F4901EB52
:1058E0008400D0F8000C00F0300606E03B4901EBE4
:1058F0008400D0F8000C00F4405699F80000A8424B
:1059000004D91EB133480068807A08B90220C8E77C
:1059100007F0800080B1314901EB8400D0F8000C21
:1059200000F0300010284BD1E0B201F037FAE0B2BD
:105930003021FFF70DFC43E0284901EB8400D0F84B
:10594000000C00F44050B0F5805F39D1E4B9244A2E
:1059500092F82C10E0B201F0BFFE204A02EB840165
:10596000D1F8001C4BF68F7201EA020080F48050DF
:1059700080F4005040F4004141F08001174B03EBEC
:105980008402C2F8001C1BE0E0B201F0EDF9134AFA
:1059900002EB8401D1F8001C4BF68F7201EA020081
:1059A00080F4805000E011E080F4005040F40041A9
:1059B00041F08001094B03EB8402C2F8001C00BFD8
:1059C000084909684869804700206AE700BF02204B
:1059D00067E70000FC05002059050020005000404A
:1059E0005C0500200806002010B504462CB90120F3
:1059F000064909680882002010BD05490968086841
:105A00008047024800680A30F6E70000FC050020E5
:105A10000806002010B5024606480068438A32B9DD
:105A20008888C01A034C24682082002010BD0868B2
:105A30001844FBE7FC05002010B504462CB90120F2
:105A4000064909680882002010BD05490968886870
:105A50008047024800680C30F6E70000FC05002093
:105A60000806002010B504462CB9022039490968FF
:105A70000882002010BD00203749088035480068A2
:105A8000007800F07F0018BB32490968487A00F0BE
:105A9000200131B13049097841F002012E4A1170DC
:105AA00005E02D49097801F0FD012B4A117000F045
:105AB000400131B12849097841F00101264A1170AD
:105AC00005E02549097801F0FE01234A11703AE00A
:105AD00020480068007800F07F00012801D11E48AE
